{
  "contractName": "CertificateManagement",
  "abi": [
    {
      "inputs": [],
      "stateMutability": "nonpayable",
      "type": "constructor"
    },
    {
      "anonymous": false,
      "inputs": [
        {
          "indexed": true,
          "internalType": "address",
          "name": "studentAddress",
          "type": "address"
        },
        {
          "indexed": true,
          "internalType": "address",
          "name": "institutionAddress",
          "type": "address"
        },
        {
          "indexed": false,
          "internalType": "string",
          "name": "studentName",
          "type": "string"
        },
        {
          "indexed": false,
          "internalType": "string",
          "name": "courseProgram",
          "type": "string"
        },
        {
          "indexed": false,
          "internalType": "string",
          "name": "certificateHash",
          "type": "string"
        },
        {
          "indexed": false,
          "internalType": "uint256",
          "name": "timestamp",
          "type": "uint256"
        }
      ],
      "name": "CertificateIssued",
      "type": "event"
    },
    {
      "anonymous": false,
      "inputs": [
        {
          "indexed": true,
          "internalType": "address",
          "name": "studentAddress",
          "type": "address"
        },
        {
          "indexed": true,
          "internalType": "address",
          "name": "institutionAddress",
          "type": "address"
        },
        {
          "indexed": false,
          "internalType": "bool",
          "name": "isValid",
          "type": "bool"
        },
        {
          "indexed": false,
          "internalType": "uint256",
          "name": "timestamp",
          "type": "uint256"
        }
      ],
      "name": "CertificateVerified",
      "type": "event"
    },
    {
      "anonymous": false,
      "inputs": [
        {
          "indexed": true,
          "internalType": "address",
          "name": "institutionAddress",
          "type": "address"
        },
        {
          "indexed": false,
          "internalType": "string",
          "name": "name",
          "type": "string"
        },
        {
          "indexed": false,
          "internalType": "string",
          "name": "email",
          "type": "string"
        },
        {
          "indexed": false,
          "internalType": "string",
          "name": "accreditationId",
          "type": "string"
        },
        {
          "indexed": false,
          "internalType": "string",
          "name": "country",
          "type": "string"
        },
        {
          "indexed": false,
          "internalType": "uint256",
          "name": "timestamp",
          "type": "uint256"
        }
      ],
      "name": "InstitutionRegistered",
      "type": "event"
    },
    {
      "inputs": [
        {
          "internalType": "address",
          "name": "",
          "type": "address"
        }
      ],
      "name": "institutions",
      "outputs": [
        {
          "internalType": "string",
          "name": "name",
          "type": "string"
        },
        {
          "internalType": "string",
          "name": "email",
          "type": "string"
        },
        {
          "internalType": "string",
          "name": "accreditationId",
          "type": "string"
        },
        {
          "internalType": "string",
          "name": "country",
          "type": "string"
        },
        {
          "internalType": "bool",
          "name": "isRegistered",
          "type": "bool"
        },
        {
          "internalType": "uint256",
          "name": "registrationDate",
          "type": "uint256"
        }
      ],
      "stateMutability": "view",
      "type": "function",
      "constant": true
    },
    {
      "inputs": [],
      "name": "owner",
      "outputs": [
        {
          "internalType": "address",
          "name": "",
          "type": "address"
        }
      ],
      "stateMutability": "view",
      "type": "function",
      "constant": true
    },
    {
      "inputs": [
        {
          "internalType": "address",
          "name": "",
          "type": "address"
        }
      ],
      "name": "registeredInstitutions",
      "outputs": [
        {
          "internalType": "bool",
          "name": "",
          "type": "bool"
        }
      ],
      "stateMutability": "view",
      "type": "function",
      "constant": true
    },
    {
      "inputs": [
        {
          "internalType": "address",
          "name": "",
          "type": "address"
        },
        {
          "internalType": "uint256",
          "name": "",
          "type": "uint256"
        }
      ],
      "name": "studentCertificates",
      "outputs": [
        {
          "internalType": "string",
          "name": "studentName",
          "type": "string"
        },
        {
          "internalType": "string",
          "name": "studentId",
          "type": "string"
        },
        {
          "internalType": "string",
          "name": "courseProgram",
          "type": "string"
        },
        {
          "internalType": "string",
          "name": "grade",
          "type": "string"
        },
        {
          "internalType": "uint256",
          "name": "issueDate",
          "type": "uint256"
        },
        {
          "internalType": "string",
          "name": "certificateHash",
          "type": "string"
        },
        {
          "internalType": "address",
          "name": "institutionAddress",
          "type": "address"
        },
        {
          "internalType": "address",
          "name": "studentAddress",
          "type": "address"
        },
        {
          "internalType": "bool",
          "name": "isIssued",
          "type": "bool"
        }
      ],
      "stateMutability": "view",
      "type": "function",
      "constant": true
    },
    {
      "inputs": [
        {
          "internalType": "string",
          "name": "",
          "type": "string"
        }
      ],
      "name": "usedCertificateHashes",
      "outputs": [
        {
          "internalType": "bool",
          "name": "",
          "type": "bool"
        }
      ],
      "stateMutability": "view",
      "type": "function",
      "constant": true
    },
    {
      "inputs": [
        {
          "internalType": "address",
          "name": "_institutionAddress",
          "type": "address"
        },
        {
          "internalType": "string",
          "name": "_name",
          "type": "string"
        },
        {
          "internalType": "string",
          "name": "_email",
          "type": "string"
        },
        {
          "internalType": "string",
          "name": "_accreditationId",
          "type": "string"
        },
        {
          "internalType": "string",
          "name": "_country",
          "type": "string"
        }
      ],
      "name": "registerInstitution",
      "outputs": [],
      "stateMutability": "nonpayable",
      "type": "function"
    },
    {
      "inputs": [
        {
          "internalType": "string",
          "name": "_studentName",
          "type": "string"
        },
        {
          "internalType": "string",
          "name": "_studentId",
          "type": "string"
        },
        {
          "internalType": "string",
          "name": "_courseProgram",
          "type": "string"
        },
        {
          "internalType": "string",
          "name": "_grade",
          "type": "string"
        },
        {
          "internalType": "string",
          "name": "_certificateHash",
          "type": "string"
        },
        {
          "internalType": "address",
          "name": "_studentAddress",
          "type": "address"
        }
      ],
      "name": "issueCertificate",
      "outputs": [],
      "stateMutability": "nonpayable",
      "type": "function"
    },
    {
      "inputs": [
        {
          "internalType": "address",
          "name": "_studentAddress",
          "type": "address"
        }
      ],
      "name": "verifyCertificate",
      "outputs": [
        {
          "internalType": "bool",
          "name": "hasCertificates",
          "type": "bool"
        },
        {
          "internalType": "uint256",
          "name": "certificateCount",
          "type": "uint256"
        },
        {
          "internalType": "address[]",
          "name": "institutionAddresses",
          "type": "address[]"
        },
        {
          "internalType": "string[]",
          "name": "courses",
          "type": "string[]"
        },
        {
          "internalType": "uint256[]",
          "name": "issueDates",
          "type": "uint256[]"
        }
      ],
      "stateMutability": "view",
      "type": "function",
      "constant": true
    },
    {
      "inputs": [
        {
          "internalType": "address",
          "name": "_studentAddress",
          "type": "address"
        }
      ],
      "name": "getStudentCertificates",
      "outputs": [
        {
          "components": [
            {
              "internalType": "string",
              "name": "studentName",
              "type": "string"
            },
            {
              "internalType": "string",
              "name": "studentId",
              "type": "string"
            },
            {
              "internalType": "string",
              "name": "courseProgram",
              "type": "string"
            },
            {
              "internalType": "string",
              "name": "grade",
              "type": "string"
            },
            {
              "internalType": "uint256",
              "name": "issueDate",
              "type": "uint256"
            },
            {
              "internalType": "string",
              "name": "certificateHash",
              "type": "string"
            },
            {
              "internalType": "address",
              "name": "institutionAddress",
              "type": "address"
            },
            {
              "internalType": "address",
              "name": "studentAddress",
              "type": "address"
            },
            {
              "internalType": "bool",
              "name": "isIssued",
              "type": "bool"
            }
          ],
          "internalType": "struct CertificateManagement.Certificate[]",
          "name": "",
          "type": "tuple[]"
        }
      ],
      "stateMutability": "view",
      "type": "function",
      "constant": true
    },
    {
      "inputs": [
        {
          "internalType": "address",
          "name": "_studentAddress",
          "type": "address"
        },
        {
          "internalType": "uint256",
          "name": "_index",
          "type": "uint256"
        }
      ],
      "name": "getCertificateDetails",
      "outputs": [
        {
          "internalType": "string",
          "name": "studentName",
          "type": "string"
        },
        {
          "internalType": "string",
          "name": "studentId",
          "type": "string"
        },
        {
          "internalType": "string",
          "name": "courseProgram",
          "type": "string"
        },
        {
          "internalType": "string",
          "name": "grade",
          "type": "string"
        },
        {
          "internalType": "uint256",
          "name": "issueDate",
          "type": "uint256"
        },
        {
          "internalType": "string",
          "name": "certificateHash",
          "type": "string"
        },
        {
          "internalType": "address",
          "name": "institutionAddress",
          "type": "address"
        },
        {
          "internalType": "bool",
          "name": "isIssued",
          "type": "bool"
        }
      ],
      "stateMutability": "view",
      "type": "function",
      "constant": true
    },
    {
      "inputs": [
        {
          "internalType": "address",
          "name": "_institutionAddress",
          "type": "address"
        }
      ],
      "name": "isInstitutionRegistered",
      "outputs": [
        {
          "internalType": "bool",
          "name": "",
          "type": "bool"
        }
      ],
      "stateMutability": "view",
      "type": "function",
      "constant": true
    },
    {
      "inputs": [
        {
          "internalType": "address",
          "name": "_institutionAddress",
          "type": "address"
        }
      ],
      "name": "getInstitutionDetails",
      "outputs": [
        {
          "internalType": "string",
          "name": "name",
          "type": "string"
        },
        {
          "internalType": "string",
          "name": "email",
          "type": "string"
        },
        {
          "internalType": "string",
          "name": "accreditationId",
          "type": "string"
        },
        {
          "internalType": "string",
          "name": "country",
          "type": "string"
        },
        {
          "internalType": "bool",
          "name": "isRegistered",
          "type": "bool"
        },
        {
          "internalType": "uint256",
          "name": "registrationDate",
          "type": "uint256"
        }
      ],
      "stateMutability": "view",
      "type": "function",
      "constant": true
    },
    {
      "inputs": [
        {
          "internalType": "address",
          "name": "_studentAddress",
          "type": "address"
        }
      ],
      "name": "getCertificateCount",
      "outputs": [
        {
          "internalType": "uint256",
          "name": "",
          "type": "uint256"
        }
      ],
      "stateMutability": "view",
      "type": "function",
      "constant": true
    },
    {
      "inputs": [
        {
          "internalType": "address",
          "name": "_institutionAddress",
          "type": "address"
        }
      ],
      "name": "removeInstitution",
      "outputs": [],
      "stateMutability": "nonpayable",
      "type": "function"
    },
    {
      "inputs": [
        {
          "internalType": "address",
          "name": "_newOwner",
          "type": "address"
        }
      ],
      "name": "transferOwnership",
      "outputs": [],
      "stateMutability": "nonpayable",
      "type": "function"
    }
  ],
  "bytecode": "0x608060405234801561001057600080fd5b50336000806101000a81548173ffffffffffffffffffffffffffffffffffffffff021916908373ffffffffffffffffffffffffffffffffffffffff160217905550614086806100606000396000f3fe608060405234801561001057600080fd5b50600436106100f55760003560e01c8063b1d5ccf811610097578063df6169b811610066578063df6169b8146102d2578063ebc63bc014610309578063f2fde38b14610339578063f568cd7814610355576100f5565b8063b1d5ccf814610219578063b2d9767f14610249578063c3934f0e1461027e578063c3e168ab146102b6576100f5565b806383c0e354116100d357806383c0e354146101935780638747d5ed146101c35780638da5cb5b146101df5780639a986b8d146101fd576100f5565b8063383cb8a4146100fa5780634c608de71461012a5780636b9afc901461015f575b600080fd5b610114600480360381019061010f9190612a93565b610385565b6040516101219190612af7565b60405180910390f35b610144600480360381019061013f9190612b70565b6103bb565b60405161015696959493929190612c35565b60405180910390f35b61017960048036038101906101749190612b70565b6106b3565b60405161018a959493929190612f3a565b60405180910390f35b6101ad60048036038101906101a89190612b70565b610d00565b6040516101ba9190612af7565b60405180910390f35b6101dd60048036038101906101d89190612b70565b610d56565b005b6101e7610f69565b6040516101f49190612fb1565b60405180910390f35b61021760048036038101906102129190612fcc565b610f8d565b005b610233600480360381019061022e9190612b70565b611470565b60405161024091906130e5565b60405180910390f35b610263600480360381019061025e9190612b70565b6114bc565b60405161027596959493929190612c35565b60405180910390f35b6102986004803603810190610293919061312c565b611725565b6040516102ad9998979695949392919061316c565b60405180910390f35b6102d060048036038101906102cb919061321c565b611a85565b005b6102ec60048036038101906102e7919061312c565b611e40565b604051610300989796959493929190613307565b60405180910390f35b610323600480360381019061031e9190612b70565b612332565b604051610330919061355a565b60405180910390f35b610353600480360381019061034e9190612b70565b61277c565b005b61036f600480360381019061036a9190612b70565b6128bc565b60405161037c9190612af7565b60405180910390f35b6004818051602081018201805184825260208301602085012081835280955050505050506000915054906101000a900460ff1681565b6060806060806000806000600160008973ffffffffffffffffffffffffffffffffffffffff1673ffffffffffffffffffffffffffffffffffffffff1681526020019081526020016000206040518060c0016040529081600082018054610420906135ab565b80601f016020809104026020016040519081016040528092919081815260200182805461044c906135ab565b80156104995780601f1061046e57610100808354040283529160200191610499565b820191906000526020600020905b81548152906001019060200180831161047c57829003601f168201915b505050505081526020016001820180546104b2906135ab565b80601f01602080910402602001604051908101604052809291908181526020018280546104de906135ab565b801561052b5780601f106105005761010080835404028352916020019161052b565b820191906000526020600020905b81548152906001019060200180831161050e57829003601f168201915b50505050508152602001600282018054610544906135ab565b80601f0160208091040260200160405190810160405280929190818152602001828054610570906135ab565b80156105bd5780601f10610592576101008083540402835291602001916105bd565b820191906000526020600020905b8154815290600101906020018083116105a057829003601f168201915b505050505081526020016003820180546105d6906135ab565b80601f0160208091040260200160405190810160405280929190818152602001828054610602906135ab565b801561064f5780601f106106245761010080835404028352916020019161064f565b820191906000526020600020905b81548152906001019060200180831161063257829003601f168201915b505050505081526020016004820160009054906101000a900460ff161515151581526020016005820154815250509050806000015181602001518260400151836060015184608001518560a001519650965096509650965096505091939550919395565b60008060608060606000600260008873ffffffffffffffffffffffffffffffffffffffff1673ffffffffffffffffffffffffffffffffffffffff168152602001908152602001600020805480602002602001604051908101604052809291908181526020016000905b82821015610afa578382906000526020600020906008020160405180610120016040529081600082018054610750906135ab565b80601f016020809104026020016040519081016040528092919081815260200182805461077c906135ab565b80156107c95780601f1061079e576101008083540402835291602001916107c9565b820191906000526020600020905b8154815290600101906020018083116107ac57829003601f168201915b505050505081526020016001820180546107e2906135ab565b80601f016020809104026020016040519081016040528092919081815260200182805461080e906135ab565b801561085b5780601f106108305761010080835404028352916020019161085b565b820191906000526020600020905b81548152906001019060200180831161083e57829003601f168201915b50505050508152602001600282018054610874906135ab565b80601f01602080910402602001604051908101604052809291908181526020018280546108a0906135ab565b80156108ed5780601f106108c2576101008083540402835291602001916108ed565b820191906000526020600020905b8154815290600101906020018083116108d057829003601f168201915b50505050508152602001600382018054610906906135ab565b80601f0160208091040260200160405190810160405280929190818152602001828054610932906135ab565b801561097f5780601f106109545761010080835404028352916020019161097f565b820191906000526020600020905b81548152906001019060200180831161096257829003601f168201915b50505050508152602001600482015481526020016005820180546109a2906135ab565b80601f01602080910402602001604051908101604052809291908181526020018280546109ce906135ab565b8015610a1b5780601f106109f057610100808354040283529160200191610a1b565b820191906000526020600020905b8154815290600101906020018083116109fe57829003601f168201915b505050505081526020016006820160009054906101000a900473ffffffffffffffffffffffffffffffffffffffff1673ffffffffffffffffffffffffffffffffffffffff1673ffffffffffffffffffffffffffffffffffffffff1681526020016007820160009054906101000a900473ffffffffffffffffffffffffffffffffffffffff1673ffffffffffffffffffffffffffffffffffffffff1673ffffffffffffffffffffffffffffffffffffffff1681526020016007820160149054906101000a900460ff1615151515815250508152602001906001019061071c565b505050509050805194506000851195508467ffffffffffffffff811115610b2457610b23612968565b5b604051908082528060200260200182016040528015610b525781602001602082028036833780820191505090505b5093508467ffffffffffffffff811115610b6f57610b6e612968565b5b604051908082528060200260200182016040528015610ba257816020015b6060815260200190600190039081610b8d5790505b5092508467ffffffffffffffff811115610bbf57610bbe612968565b5b604051908082528060200260200182016040528015610bed5781602001602082028036833780820191505090505b50915060005b85811015610cf557818181518110610c0e57610c0d6135dc565b5b602002602001015160c00151858281518110610c2d57610c2c6135dc565b5b602002602001019073ffffffffffffffffffffffffffffffffffffffff16908173ffffffffffffffffffffffffffffffffffffffff1681525050818181518110610c7a57610c796135dc565b5b602002602001015160400151848281518110610c9957610c986135dc565b5b6020026020010181905250818181518110610cb757610cb66135dc565b5b602002602001015160800151838281518110610cd657610cd56135dc565b5b6020026020010181815250508080610ced9061363a565b915050610bf3565b505091939590929450565b6000600360008373ffffffffffffffffffffffffffffffffffffffff1673ffffffffffffffffffffffffffffffffffffffff16815260200190815260200160002060009054906101000a900460ff169050919050565b60008054906101000a900473ffffffffffffffffffffffffffffffffffffffff1673ffffffffffffffffffffffffffffffffffffffff163373ffffffffffffffffffffffffffffffffffffffff1614610de4576040517f08c379a0000000000000000000000000000000000000000000000000000000008152600401610ddb906136f4565b60405180910390fd5b600360008273ffffffffffffffffffffffffffffffffffffffff1673ffffffffffffffffffffffffffffffffffffffff16815260200190815260200160002060009054906101000a900460ff16610e70576040517f08c379a0000000000000000000000000000000000000000000000000000000008152600401610e6790613760565b60405180910390fd5b600160008273ffffffffffffffffffffffffffffffffffffffff1673ffffffffffffffffffffffffffffffffffffffff16815260200190815260200160002060008082016000610ec091906128dc565b600182016000610ed091906128dc565b600282016000610ee091906128dc565b600382016000610ef091906128dc565b6004820160006101000a81549060ff0219169055600582016000905550506000600360008373ffffffffffffffffffffffffffffffffffffffff1673ffffffffffffffffffffffffffffffffffffffff16815260200190815260200160002060006101000a81548160ff02191690831515021790555050565b60008054906101000a900473ffffffffffffffffffffffffffffffffffffffff1681565b600360003373ffffffffffffffffffffffffffffffffffffffff1673ffffffffffffffffffffffffffffffffffffffff16815260200190815260200160002060009054906101000a900460ff16611019576040517f08c379a0000000000000000000000000000000000000000000000000000000008152600401611010906137f2565b60405180910390fd5b600073ffffffffffffffffffffffffffffffffffffffff168173ffffffffffffffffffffffffffffffffffffffff1603611088576040517f08c379a000000000000000000000000000000000000000000000000000000000815260040161107f9061385e565b60405180910390fd5b60008651116110cc576040517f08c379a00000000000000000000000000000000000000000000000000000000081526004016110c3906138ca565b60405180910390fd5b6000845111611110576040517f08c379a000000000000000000000000000000000000000000000000000000000815260040161110790613936565b60405180910390fd5b6000825111611154576040517f08c379a000000000000000000000000000000000000000000000000000000000815260040161114b906139a2565b60405180910390fd5b60048260405161116491906139fe565b908152602001604051809103902060009054906101000a900460ff16156111c0576040517f08c379a00000000000000000000000000000000000000000000000000000000081526004016111b790613a61565b60405180910390fd5b60006040518061012001604052808881526020018781526020018681526020018581526020014281526020018481526020013373ffffffffffffffffffffffffffffffffffffffff1681526020018373ffffffffffffffffffffffffffffffffffffffff168152602001600115158152509050600260008373ffffffffffffffffffffffffffffffffffffffff1673ffffffffffffffffffffffffffffffffffffffff16815260200190815260200160002081908060018154018082558091505060019003906000526020600020906008020160009091909190915060008201518160000190816112b19190613c2d565b5060208201518160010190816112c79190613c2d565b5060408201518160020190816112dd9190613c2d565b5060608201518160030190816112f39190613c2d565b506080820151816004015560a08201518160050190816113139190613c2d565b5060c08201518160060160006101000a81548173ffffffffffffffffffffffffffffffffffffffff021916908373ffffffffffffffffffffffffffffffffffffffff16021790555060e08201518160070160006101000a81548173ffffffffffffffffffffffffffffffffffffffff021916908373ffffffffffffffffffffffffffffffffffffffff1602179055506101008201518160070160146101000a81548160ff021916908315150217905550505060016004846040516113d791906139fe565b908152602001604051809103902060006101000a81548160ff0219169083151502179055503373ffffffffffffffffffffffffffffffffffffffff168273ffffffffffffffffffffffffffffffffffffffff167fd00116d1dd134325ea11bfe837b051707ddefe00c83f506adfcbf36feee9f01d8988874260405161145f9493929190613cff565b60405180910390a350505050505050565b6000600260008373ffffffffffffffffffffffffffffffffffffffff1673ffffffffffffffffffffffffffffffffffffffff168152602001908152602001600020805490509050919050565b60016020528060005260406000206000915090508060000180546114df906135ab565b80601f016020809104026020016040519081016040528092919081815260200182805461150b906135ab565b80156115585780601f1061152d57610100808354040283529160200191611558565b820191906000526020600020905b81548152906001019060200180831161153b57829003601f168201915b50505050509080600101805461156d906135ab565b80601f0160208091040260200160405190810160405280929190818152602001828054611599906135ab565b80156115e65780601f106115bb576101008083540402835291602001916115e6565b820191906000526020600020905b8154815290600101906020018083116115c957829003601f168201915b5050505050908060020180546115fb906135ab565b80601f0160208091040260200160405190810160405280929190818152602001828054611627906135ab565b80156116745780601f1061164957610100808354040283529160200191611674565b820191906000526020600020905b81548152906001019060200180831161165757829003601f168201915b505050505090806003018054611689906135ab565b80601f01602080910402602001604051908101604052809291908181526020018280546116b5906135ab565b80156117025780601f106116d757610100808354040283529160200191611702565b820191906000526020600020905b8154815290600101906020018083116116e557829003601f168201915b5050505050908060040160009054906101000a900460ff16908060050154905086565b6002602052816000526040600020818154811061174157600080fd5b906000526020600020906008020160009150915050806000018054611765906135ab565b80601f0160208091040260200160405190810160405280929190818152602001828054611791906135ab565b80156117de5780601f106117b3576101008083540402835291602001916117de565b820191906000526020600020905b8154815290600101906020018083116117c157829003601f168201915b5050505050908060010180546117f3906135ab565b80601f016020809104026020016040519081016040528092919081815260200182805461181f906135ab565b801561186c5780601f106118415761010080835404028352916020019161186c565b820191906000526020600020905b81548152906001019060200180831161184f57829003601f168201915b505050505090806002018054611881906135ab565b80601f01602080910402602001604051908101604052809291908181526020018280546118ad906135ab565b80156118fa5780601f106118cf576101008083540402835291602001916118fa565b820191906000526020600020905b8154815290600101906020018083116118dd57829003601f168201915b50505050509080600301805461190f906135ab565b80601f016020809104026020016040519081016040528092919081815260200182805461193b906135ab565b80156119885780601f1061195d57610100808354040283529160200191611988565b820191906000526020600020905b81548152906001019060200180831161196b57829003601f168201915b5050505050908060040154908060050180546119a3906135ab565b80601f01602080910402602001604051908101604052809291908181526020018280546119cf906135ab565b8015611a1c5780601f106119f157610100808354040283529160200191611a1c565b820191906000526020600020905b8154815290600101906020018083116119ff57829003601f168201915b5050505050908060060160009054906101000a900473ffffffffffffffffffffffffffffffffffffffff16908060070160009054906101000a900473ffffffffffffffffffffffffffffffffffffffff16908060070160149054906101000a900460ff16905089565b60008054906101000a900473ffffffffffffffffffffffffffffffffffffffff1673ffffffffffffffffffffffffffffffffffffffff163373ffffffffffffffffffffffffffffffffffffffff1614611b13576040517f08c379a0000000000000000000000000000000000000000000000000000000008152600401611b0a906136f4565b60405180910390fd5b600073ffffffffffffffffffffffffffffffffffffffff168573ffffffffffffffffffffffffffffffffffffffff1603611b82576040517f08c379a0000000000000000000000000000000000000000000000000000000008152600401611b7990613da5565b60405180910390fd5b600360008673ffffffffffffffffffffffffffffffffffffffff1673ffffffffffffffffffffffffffffffffffffffff16815260200190815260200160002060009054906101000a900460ff1615611c0f576040517f08c379a0000000000000000000000000000000000000000000000000000000008152600401611c0690613e11565b60405180910390fd5b6000845111611c53576040517f08c379a0000000000000000000000000000000000000000000000000000000008152600401611c4a90613e7d565b60405180910390fd5b6000825111611c97576040517f08c379a0000000000000000000000000000000000000000000000000000000008152600401611c8e90613ee9565b60405180910390fd5b6040518060c0016040528085815260200184815260200183815260200182815260200160011515815260200142815250600160008773ffffffffffffffffffffffffffffffffffffffff1673ffffffffffffffffffffffffffffffffffffffff1681526020019081526020016000206000820151816000019081611d1b9190613c2d565b506020820151816001019081611d319190613c2d565b506040820151816002019081611d479190613c2d565b506060820151816003019081611d5d9190613c2d565b5060808201518160040160006101000a81548160ff02191690831515021790555060a082015181600501559050506001600360008773ffffffffffffffffffffffffffffffffffffffff1673ffffffffffffffffffffffffffffffffffffffff16815260200190815260200160002060006101000a81548160ff0219169083151502179055508473ffffffffffffffffffffffffffffffffffffffff167f8a2be423743212440528f88554528d34b78ac651c62f98757f062f29839fbbd08585858542604051611e31959493929190613f09565b60405180910390a25050505050565b60608060608060006060600080600260008b73ffffffffffffffffffffffffffffffffffffffff1673ffffffffffffffffffffffffffffffffffffffff168152602001908152602001600020805490508910611ed1576040517f08c379a0000000000000000000000000000000000000000000000000000000008152600401611ec890613fc4565b60405180910390fd5b6000600260008c73ffffffffffffffffffffffffffffffffffffffff1673ffffffffffffffffffffffffffffffffffffffff1681526020019081526020016000208a81548110611f2457611f236135dc565b5b906000526020600020906008020160405180610120016040529081600082018054611f4e906135ab565b80601f0160208091040260200160405190810160405280929190818152602001828054611f7a906135ab565b8015611fc75780601f10611f9c57610100808354040283529160200191611fc7565b820191906000526020600020905b815481529060010190602001808311611faa57829003601f168201915b50505050508152602001600182018054611fe0906135ab565b80601f016020809104026020016040519081016040528092919081815260200182805461200c906135ab565b80156120595780601f1061202e57610100808354040283529160200191612059565b820191906000526020600020905b81548152906001019060200180831161203c57829003601f168201915b50505050508152602001600282018054612072906135ab565b80601f016020809104026020016040519081016040528092919081815260200182805461209e906135ab565b80156120eb5780601f106120c0576101008083540402835291602001916120eb565b820191906000526020600020905b8154815290600101906020018083116120ce57829003601f168201915b50505050508152602001600382018054612104906135ab565b80601f0160208091040260200160405190810160405280929190818152602001828054612130906135ab565b801561217d5780601f106121525761010080835404028352916020019161217d565b820191906000526020600020905b81548152906001019060200180831161216057829003601f168201915b50505050508152602001600482015481526020016005820180546121a0906135ab565b80601f01602080910402602001604051908101604052809291908181526020018280546121cc906135ab565b80156122195780601f106121ee57610100808354040283529160200191612219565b820191906000526020600020905b8154815290600101906020018083116121fc57829003601f168201915b505050505081526020016006820160009054906101000a900473ffffffffffffffffffffffffffffffffffffffff1673ffffffffffffffffffffffffffffffffffffffff1673ffffffffffffffffffffffffffffffffffffffff1681526020016007820160009054906101000a900473ffffffffffffffffffffffffffffffffffffffff1673ffffffffffffffffffffffffffffffffffffffff1673ffffffffffffffffffffffffffffffffffffffff1681526020016007820160149054906101000a900460ff1615151515815250509050806000015181602001518260400151836060015184608001518560a001518660c0015187610100015198509850985098509850985098509850509295985092959890939650565b6060600260008373ffffffffffffffffffffffffffffffffffffffff1673ffffffffffffffffffffffffffffffffffffffff168152602001908152602001600020805480602002602001604051908101604052809291908181526020016000905b828210156127715783829060005260206000209060080201604051806101200160405290816000820180546123c7906135ab565b80601f01602080910402602001604051908101604052809291908181526020018280546123f3906135ab565b80156124405780601f1061241557610100808354040283529160200191612440565b820191906000526020600020905b81548152906001019060200180831161242357829003601f168201915b50505050508152602001600182018054612459906135ab565b80601f0160208091040260200160405190810160405280929190818152602001828054612485906135ab565b80156124d25780601f106124a7576101008083540402835291602001916124d2565b820191906000526020600020905b8154815290600101906020018083116124b557829003601f168201915b505050505081526020016002820180546124eb906135ab565b80601f0160208091040260200160405190810160405280929190818152602001828054612517906135ab565b80156125645780601f1061253957610100808354040283529160200191612564565b820191906000526020600020905b81548152906001019060200180831161254757829003601f168201915b5050505050815260200160038201805461257d906135ab565b80601f01602080910402602001604051908101604052809291908181526020018280546125a9906135ab565b80156125f65780601f106125cb576101008083540402835291602001916125f6565b820191906000526020600020905b8154815290600101906020018083116125d957829003601f168201915b5050505050815260200160048201548152602001600582018054612619906135ab565b80601f0160208091040260200160405190810160405280929190818152602001828054612645906135ab565b80156126925780601f1061266757610100808354040283529160200191612692565b820191906000526020600020905b81548152906001019060200180831161267557829003601f168201915b505050505081526020016006820160009054906101000a900473ffffffffffffffffffffffffffffffffffffffff1673ffffffffffffffffffffffffffffffffffffffff1673ffffffffffffffffffffffffffffffffffffffff1681526020016007820160009054906101000a900473ffffffffffffffffffffffffffffffffffffffff1673ffffffffffffffffffffffffffffffffffffffff1673ffffffffffffffffffffffffffffffffffffffff1681526020016007820160149054906101000a900460ff16151515158152505081526020019060010190612393565b505050509050919050565b60008054906101000a900473ffffffffffffffffffffffffffffffffffffffff1673ffffffffffffffffffffffffffffffffffffffff163373ffffffffffffffffffffffffffffffffffffffff161461280a576040517f08c379a0000000000000000000000000000000000000000000000000000000008152600401612801906136f4565b60405180910390fd5b600073ffffffffffffffffffffffffffffffffffffffff168173ffffffffffffffffffffffffffffffffffffffff1603612879576040517f08c379a000000000000000000000000000000000000000000000000000000000815260040161287090614030565b60405180910390fd5b806000806101000a81548173ffffffffffffffffffffffffffffffffffffffff021916908373ffffffffffffffffffffffffffffffffffffffff16021790555050565b60036020528060005260406000206000915054906101000a900460ff1681565b5080546128e8906135ab565b6000825580601f106128fa5750612919565b601f016020900490600052602060002090810190612918919061291c565b5b50565b5b8082111561293557600081600090555060010161291d565b5090565b6000604051905090565b600080fd5b600080fd5b600080fd5b600080fd5b6000601f19601f8301169050919050565b7f4e487b7100000000000000000000000000000000000000000000000000000000600052604160045260246000fd5b6129a082612957565b810181811067ffffffffffffffff821117156129bf576129be612968565b5b80604052505050565b60006129d2612939565b90506129de8282612997565b919050565b600067ffffffffffffffff8211156129fe576129fd612968565b5b612a0782612957565b9050602081019050919050565b82818337600083830152505050565b6000612a36612a31846129e3565b6129c8565b905082815260208101848484011115612a5257612a51612952565b5b612a5d848285612a14565b509392505050565b600082601f830112612a7a57612a7961294d565b5b8135612a8a848260208601612a23565b91505092915050565b600060208284031215612aa957612aa8612943565b5b600082013567ffffffffffffffff811115612ac757612ac6612948565b5b612ad384828501612a65565b91505092915050565b60008115159050919050565b612af181612adc565b82525050565b6000602082019050612b0c6000830184612ae8565b92915050565b600073ffffffffffffffffffffffffffffffffffffffff82169050919050565b6000612b3d82612b12565b9050919050565b612b4d81612b32565b8114612b5857600080fd5b50565b600081359050612b6a81612b44565b92915050565b600060208284031215612b8657612b85612943565b5b6000612b9484828501612b5b565b91505092915050565b600081519050919050565b600082825260208201905092915050565b60005b83811015612bd7578082015181840152602081019050612bbc565b60008484015250505050565b6000612bee82612b9d565b612bf88185612ba8565b9350612c08818560208601612bb9565b612c1181612957565b840191505092915050565b6000819050919050565b612c2f81612c1c565b82525050565b600060c0820190508181036000830152612c4f8189612be3565b90508181036020830152612c638188612be3565b90508181036040830152612c778187612be3565b90508181036060830152612c8b8186612be3565b9050612c9a6080830185612ae8565b612ca760a0830184612c26565b979650505050505050565b600081519050919050565b600082825260208201905092915050565b6000819050602082019050919050565b612ce781612b32565b82525050565b6000612cf98383612cde565b60208301905092915050565b6000602082019050919050565b6000612d1d82612cb2565b612d278185612cbd565b9350612d3283612cce565b8060005b83811015612d63578151612d4a8882612ced565b9750612d5583612d05565b925050600181019050612d36565b5085935050505092915050565b600081519050919050565b600082825260208201905092915050565b6000819050602082019050919050565b600082825260208201905092915050565b6000612db882612b9d565b612dc28185612d9c565b9350612dd2818560208601612bb9565b612ddb81612957565b840191505092915050565b6000612df28383612dad565b905092915050565b6000602082019050919050565b6000612e1282612d70565b612e1c8185612d7b565b935083602082028501612e2e85612d8c565b8060005b85811015612e6a5784840389528151612e4b8582612de6565b9450612e5683612dfa565b925060208a01995050600181019050612e32565b50829750879550505050505092915050565b600081519050919050565b600082825260208201905092915050565b6000819050602082019050919050565b612eb181612c1c565b82525050565b6000612ec38383612ea8565b60208301905092915050565b6000602082019050919050565b6000612ee782612e7c565b612ef18185612e87565b9350612efc83612e98565b8060005b83811015612f2d578151612f148882612eb7565b9750612f1f83612ecf565b925050600181019050612f00565b5085935050505092915050565b600060a082019050612f4f6000830188612ae8565b612f5c6020830187612c26565b8181036040830152612f6e8186612d12565b90508181036060830152612f828185612e07565b90508181036080830152612f968184612edc565b90509695505050505050565b612fab81612b32565b82525050565b6000602082019050612fc66000830184612fa2565b92915050565b60008060008060008060c08789031215612fe957612fe8612943565b5b600087013567ffffffffffffffff81111561300757613006612948565b5b61301389828a01612a65565b965050602087013567ffffffffffffffff81111561303457613033612948565b5b61304089828a01612a65565b955050604087013567ffffffffffffffff81111561306157613060612948565b5b61306d89828a01612a65565b945050606087013567ffffffffffffffff81111561308e5761308d612948565b5b61309a89828a01612a65565b935050608087013567ffffffffffffffff8111156130bb576130ba612948565b5b6130c789828a01612a65565b92505060a06130d889828a01612b5b565b9150509295509295509295565b60006020820190506130fa6000830184612c26565b92915050565b61310981612c1c565b811461311457600080fd5b50565b60008135905061312681613100565b92915050565b6000806040838503121561314357613142612943565b5b600061315185828601612b5b565b925050602061316285828601613117565b9150509250929050565b6000610120820190508181036000830152613187818c612be3565b9050818103602083015261319b818b612be3565b905081810360408301526131af818a612be3565b905081810360608301526131c38189612be3565b90506131d26080830188612c26565b81810360a08301526131e48187612be3565b90506131f360c0830186612fa2565b61320060e0830185612fa2565b61320e610100830184612ae8565b9a9950505050505050505050565b600080600080600060a0868803121561323857613237612943565b5b600061324688828901612b5b565b955050602086013567ffffffffffffffff81111561326757613266612948565b5b61327388828901612a65565b945050604086013567ffffffffffffffff81111561329457613293612948565b5b6132a088828901612a65565b935050606086013567ffffffffffffffff8111156132c1576132c0612948565b5b6132cd88828901612a65565b925050608086013567ffffffffffffffff8111156132ee576132ed612948565b5b6132fa88828901612a65565b9150509295509295909350565b6000610100820190508181036000830152613322818b612be3565b90508181036020830152613336818a612be3565b9050818103604083015261334a8189612be3565b9050818103606083015261335e8188612be3565b905061336d6080830187612c26565b81810360a083015261337f8186612be3565b905061338e60c0830185612fa2565b61339b60e0830184612ae8565b9998505050505050505050565b600081519050919050565b600082825260208201905092915050565b6000819050602082019050919050565b6133dd81612adc565b82525050565b60006101208301600083015184820360008601526134018282612dad565b9150506020830151848203602086015261341b8282612dad565b915050604083015184820360408601526134358282612dad565b9150506060830151848203606086015261344f8282612dad565b91505060808301516134646080860182612ea8565b5060a083015184820360a086015261347c8282612dad565b91505060c083015161349160c0860182612cde565b5060e08301516134a460e0860182612cde565b506101008301516134b96101008601826133d4565b508091505092915050565b60006134d083836133e3565b905092915050565b6000602082019050919050565b60006134f0826133a8565b6134fa81856133b3565b93508360208202850161350c856133c4565b8060005b85811015613548578484038952815161352985826134c4565b9450613534836134d8565b925060208a01995050600181019050613510565b50829750879550505050505092915050565b6000602082019050818103600083015261357481846134e5565b905092915050565b7f4e487b7100000000000000000000000000000000000000000000000000000000600052602260045260246000fd5b600060028204905060018216806135c357607f821691505b6020821081036135d6576135d561357c565b5b50919050565b7f4e487b7100000000000000000000000000000000000000000000000000000000600052603260045260246000fd5b7f4e487b7100000000000000000000000000000000000000000000000000000000600052601160045260246000fd5b600061364582612c1c565b91507fffffffffffffffffffffffffffffffffffffffffffffffffffffffffffffffff82036136775761367661360b565b5b600182019050919050565b7f4f6e6c79206f776e65722063616e20706572666f726d2074686973206163746960008201527f6f6e000000000000000000000000000000000000000000000000000000000000602082015250565b60006136de602283612ba8565b91506136e982613682565b604082019050919050565b6000602082019050818103600083015261370d816136d1565b9050919050565b7f496e737469747574696f6e206e6f742072656769737465726564000000000000600082015250565b600061374a601a83612ba8565b915061375582613714565b602082019050919050565b600060208201905081810360008301526137798161373d565b9050919050565b7f4f6e6c79207265676973746572656420696e737469747574696f6e732063616e60008201527f20706572666f726d207468697320616374696f6e000000000000000000000000602082015250565b60006137dc603483612ba8565b91506137e782613780565b604082019050919050565b6000602082019050818103600083015261380b816137cf565b9050919050565b7f496e76616c69642073747564656e742061646472657373000000000000000000600082015250565b6000613848601783612ba8565b915061385382613812565b602082019050919050565b600060208201905081810360008301526138778161383b565b9050919050565b7f53747564656e74206e616d652063616e6e6f7420626520656d70747900000000600082015250565b60006138b4601c83612ba8565b91506138bf8261387e565b602082019050919050565b600060208201905081810360008301526138e3816138a7565b9050919050565b7f436f757273652070726f6772616d2063616e6e6f7420626520656d7074790000600082015250565b6000613920601e83612ba8565b915061392b826138ea565b602082019050919050565b6000602082019050818103600083015261394f81613913565b9050919050565b7f436572746966696361746520686173682063616e6e6f7420626520656d707479600082015250565b600061398c602083612ba8565b915061399782613956565b602082019050919050565b600060208201905081810360008301526139bb8161397f565b9050919050565b600081905092915050565b60006139d882612b9d565b6139e281856139c2565b93506139f2818560208601612bb9565b80840191505092915050565b6000613a0a82846139cd565b915081905092915050565b7f4365727469666963617465206861736820616c72656164792075736564000000600082015250565b6000613a4b601d83612ba8565b9150613a5682613a15565b602082019050919050565b60006020820190508181036000830152613a7a81613a3e565b9050919050565b60008190508160005260206000209050919050565b60006020601f8301049050919050565b600082821b905092915050565b600060088302613ae37fffffffffffffffffffffffffffffffffffffffffffffffffffffffffffffffff82613aa6565b613aed8683613aa6565b95508019841693508086168417925050509392505050565b6000819050919050565b6000613b2a613b25613b2084612c1c565b613b05565b612c1c565b9050919050565b6000819050919050565b613b4483613b0f565b613b58613b5082613b31565b848454613ab3565b825550505050565b600090565b613b6d613b60565b613b78818484613b3b565b505050565b5b81811015613b9c57613b91600082613b65565b600181019050613b7e565b5050565b601f821115613be157613bb281613a81565b613bbb84613a96565b81016020851015613bca578190505b613bde613bd685613a96565b830182613b7d565b50505b505050565b600082821c905092915050565b6000613c0460001984600802613be6565b1980831691505092915050565b6000613c1d8383613bf3565b9150826002028217905092915050565b613c3682612b9d565b67ffffffffffffffff811115613c4f57613c4e612968565b5b613c5982546135ab565b613c64828285613ba0565b600060209050601f831160018114613c975760008415613c85578287015190505b613c8f8582613c11565b865550613cf7565b601f198416613ca586613a81565b60005b82811015613ccd57848901518255600182019150602085019450602081019050613ca8565b86831015613cea5784890151613ce6601f891682613bf3565b8355505b6001600288020188555050505b505050505050565b60006080820190508181036000830152613d198187612be3565b90508181036020830152613d2d8186612be3565b90508181036040830152613d418185612be3565b9050613d506060830184612c26565b95945050505050565b7f496e76616c696420696e737469747574696f6e20616464726573730000000000600082015250565b6000613d8f601b83612ba8565b9150613d9a82613d59565b602082019050919050565b60006020820190508181036000830152613dbe81613d82565b9050919050565b7f496e737469747574696f6e20616c726561647920726567697374657265640000600082015250565b6000613dfb601e83612ba8565b9150613e0682613dc5565b602082019050919050565b60006020820190508181036000830152613e2a81613dee565b9050919050565b7f496e737469747574696f6e206e616d652063616e6e6f7420626520656d707479600082015250565b6000613e67602083612ba8565b9150613e7282613e31565b602082019050919050565b60006020820190508181036000830152613e9681613e5a565b9050919050565b7f41636372656469746174696f6e2049442063616e6e6f7420626520656d707479600082015250565b6000613ed3602083612ba8565b9150613ede82613e9d565b602082019050919050565b60006020820190508181036000830152613f0281613ec6565b9050919050565b600060a0820190508181036000830152613f238188612be3565b90508181036020830152613f378187612be3565b90508181036040830152613f4b8186612be3565b90508181036060830152613f5f8185612be3565b9050613f6e6080830184612c26565b9695505050505050565b7f496e76616c696420636572746966696361746520696e64657800000000000000600082015250565b6000613fae601983612ba8565b9150613fb982613f78565b602082019050919050565b60006020820190508181036000830152613fdd81613fa1565b9050919050565b7f496e76616c6964206e6577206f776e6572206164647265737300000000000000600082015250565b600061401a601983612ba8565b915061402582613fe4565b602082019050919050565b600060208201905081810360008301526140498161400d565b905091905056fea2646970667358221220b31f7247922aba33aa945b5f2ece812616fe91fcdc739cfb1fd50663f99dff0a64736f6c63430008130033",
  "immutableReferences": {},
  "source": "// SPDX-License-Identifier: MIT\r\npragma solidity >=0.8.19;\r\n\r\ncontract CertificateManagement {\r\n    address public owner;\r\n    \r\n    // Structure for Institution\r\n    struct Institution {\r\n        string name;\r\n        string email;\r\n        string accreditationId;\r\n        string country;\r\n        bool isRegistered;\r\n        uint256 registrationDate;\r\n    }\r\n    \r\n    // Structure for Certificate\r\n    struct Certificate {\r\n        string studentName;\r\n        string studentId;\r\n        string courseProgram;\r\n        string grade;\r\n        uint256 issueDate;\r\n        string certificateHash; // IPFS hash or similar for certificate file\r\n        address institutionAddress;\r\n        address studentAddress;\r\n        bool isIssued;\r\n    }\r\n    \r\n    // Mappings\r\n    mapping(address => Institution) public institutions;\r\n    mapping(address => Certificate[]) public studentCertificates;\r\n    mapping(address => bool) public registeredInstitutions;\r\n    mapping(string => bool) public usedCertificateHashes;\r\n    \r\n    // Events\r\n    event InstitutionRegistered(\r\n        address indexed institutionAddress,\r\n        string name,\r\n        string email,\r\n        string accreditationId,\r\n        string country,\r\n        uint256 timestamp\r\n    );\r\n    \r\n    event CertificateIssued(\r\n        address indexed studentAddress,\r\n        address indexed institutionAddress,\r\n        string studentName,\r\n        string courseProgram,\r\n        string certificateHash,\r\n        uint256 timestamp\r\n    );\r\n    \r\n    event CertificateVerified(\r\n        address indexed studentAddress,\r\n        address indexed institutionAddress,\r\n        bool isValid,\r\n        uint256 timestamp\r\n    );\r\n    \r\n    // Modifiers\r\n    modifier onlyOwner() {\r\n        require(msg.sender == owner, \"Only owner can perform this action\");\r\n        _;\r\n    }\r\n    \r\n    modifier onlyRegisteredInstitution() {\r\n        require(registeredInstitutions[msg.sender], \"Only registered institutions can perform this action\");\r\n        _;\r\n    }\r\n    \r\n    constructor() {\r\n        owner = msg.sender;\r\n    }\r\n    \r\n    /**\r\n     * @dev Register a new institution\r\n     */\r\n    function registerInstitution(\r\n        address _institutionAddress,\r\n        string memory _name,\r\n        string memory _email,\r\n        string memory _accreditationId,\r\n        string memory _country\r\n    ) external onlyOwner {\r\n        require(_institutionAddress != address(0), \"Invalid institution address\");\r\n        require(!registeredInstitutions[_institutionAddress], \"Institution already registered\");\r\n        require(bytes(_name).length > 0, \"Institution name cannot be empty\");\r\n        require(bytes(_accreditationId).length > 0, \"Accreditation ID cannot be empty\");\r\n        \r\n        institutions[_institutionAddress] = Institution({\r\n            name: _name,\r\n            email: _email,\r\n            accreditationId: _accreditationId,\r\n            country: _country,\r\n            isRegistered: true,\r\n            registrationDate: block.timestamp\r\n        });\r\n        \r\n        registeredInstitutions[_institutionAddress] = true;\r\n        \r\n        emit InstitutionRegistered(\r\n            _institutionAddress,\r\n            _name,\r\n            _email,\r\n            _accreditationId,\r\n            _country,\r\n            block.timestamp\r\n        );\r\n    }\r\n    \r\n    /**\r\n     * @dev Issue a certificate to a student\r\n     */\r\n    function issueCertificate(\r\n        string memory _studentName,\r\n        string memory _studentId,\r\n        string memory _courseProgram,\r\n        string memory _grade,\r\n        string memory _certificateHash,\r\n        address _studentAddress\r\n    ) external onlyRegisteredInstitution {\r\n        require(_studentAddress != address(0), \"Invalid student address\");\r\n        require(bytes(_studentName).length > 0, \"Student name cannot be empty\");\r\n        require(bytes(_courseProgram).length > 0, \"Course program cannot be empty\");\r\n        require(bytes(_certificateHash).length > 0, \"Certificate hash cannot be empty\");\r\n        require(!usedCertificateHashes[_certificateHash], \"Certificate hash already used\");\r\n        \r\n        Certificate memory newCertificate = Certificate({\r\n            studentName: _studentName,\r\n            studentId: _studentId,\r\n            courseProgram: _courseProgram,\r\n            grade: _grade,\r\n            issueDate: block.timestamp,\r\n            certificateHash: _certificateHash,\r\n            institutionAddress: msg.sender,\r\n            studentAddress: _studentAddress,\r\n            isIssued: true\r\n        });\r\n        \r\n        studentCertificates[_studentAddress].push(newCertificate);\r\n        usedCertificateHashes[_certificateHash] = true;\r\n        \r\n        emit CertificateIssued(\r\n            _studentAddress,\r\n            msg.sender,\r\n            _studentName,\r\n            _courseProgram,\r\n            _certificateHash,\r\n            block.timestamp\r\n        );\r\n    }\r\n    \r\n    /**\r\n     * @dev Verify if a certificate exists for a student\r\n     */\r\n    function verifyCertificate(address _studentAddress) external view returns (\r\n        bool hasCertificates,\r\n        uint256 certificateCount,\r\n        address[] memory institutionAddresses,\r\n        string[] memory courses,\r\n        uint256[] memory issueDates\r\n    ) {\r\n        Certificate[] memory certificates = studentCertificates[_studentAddress];\r\n        certificateCount = certificates.length;\r\n        hasCertificates = certificateCount > 0;\r\n        \r\n        institutionAddresses = new address[](certificateCount);\r\n        courses = new string[](certificateCount);\r\n        issueDates = new uint256[](certificateCount);\r\n        \r\n        for (uint256 i = 0; i < certificateCount; i++) {\r\n            institutionAddresses[i] = certificates[i].institutionAddress;\r\n            courses[i] = certificates[i].courseProgram;\r\n            issueDates[i] = certificates[i].issueDate;\r\n        }\r\n        \r\n        return (hasCertificates, certificateCount, institutionAddresses, courses, issueDates);\r\n    }\r\n    \r\n    /**\r\n     * @dev Get detailed certificate information for a student\r\n     */\r\n    function getStudentCertificates(address _studentAddress) external view returns (Certificate[] memory) {\r\n        return studentCertificates[_studentAddress];\r\n    }\r\n    \r\n    /**\r\n     * @dev Get specific certificate details by index\r\n     */\r\n    function getCertificateDetails(address _studentAddress, uint256 _index) external view returns (\r\n        string memory studentName,\r\n        string memory studentId,\r\n        string memory courseProgram,\r\n        string memory grade,\r\n        uint256 issueDate,\r\n        string memory certificateHash,\r\n        address institutionAddress,\r\n        bool isIssued\r\n    ) {\r\n        require(_index < studentCertificates[_studentAddress].length, \"Invalid certificate index\");\r\n        \r\n        Certificate memory cert = studentCertificates[_studentAddress][_index];\r\n        \r\n        return (\r\n            cert.studentName,\r\n            cert.studentId,\r\n            cert.courseProgram,\r\n            cert.grade,\r\n            cert.issueDate,\r\n            cert.certificateHash,\r\n            cert.institutionAddress,\r\n            cert.isIssued\r\n        );\r\n    }\r\n    \r\n    /**\r\n     * @dev Check if an institution is registered\r\n     */\r\n    function isInstitutionRegistered(address _institutionAddress) external view returns (bool) {\r\n        return registeredInstitutions[_institutionAddress];\r\n    }\r\n    \r\n    /**\r\n     * @dev Get institution details\r\n     */\r\n    function getInstitutionDetails(address _institutionAddress) external view returns (\r\n        string memory name,\r\n        string memory email,\r\n        string memory accreditationId,\r\n        string memory country,\r\n        bool isRegistered,\r\n        uint256 registrationDate\r\n    ) {\r\n        Institution memory institution = institutions[_institutionAddress];\r\n        return (\r\n            institution.name,\r\n            institution.email,\r\n            institution.accreditationId,\r\n            institution.country,\r\n            institution.isRegistered,\r\n            institution.registrationDate\r\n        );\r\n    }\r\n    \r\n    /**\r\n     * @dev Get total certificates issued to a student\r\n     */\r\n    function getCertificateCount(address _studentAddress) external view returns (uint256) {\r\n        return studentCertificates[_studentAddress].length;\r\n    }\r\n    \r\n    /**\r\n     * @dev Remove an institution (only owner)\r\n     */\r\n    function removeInstitution(address _institutionAddress) external onlyOwner {\r\n        require(registeredInstitutions[_institutionAddress], \"Institution not registered\");\r\n        \r\n        delete institutions[_institutionAddress];\r\n        registeredInstitutions[_institutionAddress] = false;\r\n    }\r\n    \r\n    /**\r\n     * @dev Transfer ownership (only owner)\r\n     */\r\n    function transferOwnership(address _newOwner) external onlyOwner {\r\n        require(_newOwner != address(0), \"Invalid new owner address\");\r\n        owner = _newOwner;\r\n    }\r\n}",
  "sourcePath": "C:\\Users\\shatr\\Desktop\\certificate\\backend\\contracts\\CertificateManagement.sol",
  "compiler": {
    "name": "solc",
    "version": "0.8.19+commit.7dd6d404.Emscripten.clang"
  },
  "schemaVersion": "3.4.16",
  "updatedAt": "2025-12-03T02:00:03.029Z",
  "networkType": "ethereum",
  "devdoc": {
    "kind": "dev",
    "methods": {
      "getCertificateCount(address)": {
        "details": "Get total certificates issued to a student"
      },
      "getCertificateDetails(address,uint256)": {
        "details": "Get specific certificate details by index"
      },
      "getInstitutionDetails(address)": {
        "details": "Get institution details"
      },
      "getStudentCertificates(address)": {
        "details": "Get detailed certificate information for a student"
      },
      "isInstitutionRegistered(address)": {
        "details": "Check if an institution is registered"
      },
      "issueCertificate(string,string,string,string,string,address)": {
        "details": "Issue a certificate to a student"
      },
      "registerInstitution(address,string,string,string,string)": {
        "details": "Register a new institution"
      },
      "removeInstitution(address)": {
        "details": "Remove an institution (only owner)"
      },
      "transferOwnership(address)": {
        "details": "Transfer ownership (only owner)"
      },
      "verifyCertificate(address)": {
        "details": "Verify if a certificate exists for a student"
      }
    },
    "version": 1
  },
  "userdoc": {
    "kind": "user",
    "methods": {},
    "version": 1
  }
}